{
  "contractName": "DestinationWrappedETH",
  "abi": [
    {
      "inputs": [
        {
          "internalType": "address",
          "name": "_bridge",
          "type": "address"
        },
        {
          "internalType": "contract IVerifier",
          "name": "_verifier",
          "type": "address"
        },
        {
          "internalType": "uint256",
          "name": "_denomination",
          "type": "uint256"
        }
      ],
      "stateMutability": "nonpayable",
      "type": "constructor"
    },
    {
      "anonymous": false,
      "inputs": [
        {
          "indexed": true,
          "internalType": "address",
          "name": "owner",
          "type": "address"
        },
        {
          "indexed": true,
          "internalType": "address",
          "name": "spender",
          "type": "address"
        },
        {
          "indexed": false,
          "internalType": "uint256",
          "name": "value",
          "type": "uint256"
        }
      ],
      "name": "Approval",
      "type": "event"
    },
    {
      "anonymous": false,
      "inputs": [
        {
          "indexed": false,
          "internalType": "address",
          "name": "recipient",
          "type": "address"
        },
        {
          "indexed": false,
          "internalType": "uint256",
          "name": "amount",
          "type": "uint256"
        }
      ],
      "name": "Reclaim",
      "type": "event"
    },
    {
      "anonymous": false,
      "inputs": [
        {
          "indexed": true,
          "internalType": "address",
          "name": "from",
          "type": "address"
        },
        {
          "indexed": true,
          "internalType": "address",
          "name": "to",
          "type": "address"
        },
        {
          "indexed": false,
          "internalType": "uint256",
          "name": "value",
          "type": "uint256"
        }
      ],
      "name": "Transfer",
      "type": "event"
    },
    {
      "anonymous": false,
      "inputs": [
        {
          "indexed": false,
          "internalType": "address",
          "name": "to",
          "type": "address"
        },
        {
          "indexed": false,
          "internalType": "bytes32",
          "name": "nullifierHash",
          "type": "bytes32"
        },
        {
          "indexed": true,
          "internalType": "address",
          "name": "relayer",
          "type": "address"
        },
        {
          "indexed": false,
          "internalType": "uint256",
          "name": "fee",
          "type": "uint256"
        }
      ],
      "name": "Withdrawal",
      "type": "event"
    },
    {
      "inputs": [],
      "name": "ROOT_HISTORY_SIZE",
      "outputs": [
        {
          "internalType": "uint32",
          "name": "",
          "type": "uint32"
        }
      ],
      "stateMutability": "view",
      "type": "function",
      "constant": true
    },
    {
      "inputs": [
        {
          "internalType": "address",
          "name": "owner",
          "type": "address"
        },
        {
          "internalType": "address",
          "name": "spender",
          "type": "address"
        }
      ],
      "name": "allowance",
      "outputs": [
        {
          "internalType": "uint256",
          "name": "",
          "type": "uint256"
        }
      ],
      "stateMutability": "view",
      "type": "function",
      "constant": true
    },
    {
      "inputs": [
        {
          "internalType": "address",
          "name": "spender",
          "type": "address"
        },
        {
          "internalType": "uint256",
          "name": "amount",
          "type": "uint256"
        }
      ],
      "name": "approve",
      "outputs": [
        {
          "internalType": "bool",
          "name": "",
          "type": "bool"
        }
      ],
      "stateMutability": "nonpayable",
      "type": "function"
    },
    {
      "inputs": [
        {
          "internalType": "address",
          "name": "account",
          "type": "address"
        }
      ],
      "name": "balanceOf",
      "outputs": [
        {
          "internalType": "uint256",
          "name": "",
          "type": "uint256"
        }
      ],
      "stateMutability": "view",
      "type": "function",
      "constant": true
    },
    {
      "inputs": [],
      "name": "currentRootIndex",
      "outputs": [
        {
          "internalType": "uint32",
          "name": "",
          "type": "uint32"
        }
      ],
      "stateMutability": "view",
      "type": "function",
      "constant": true
    },
    {
      "inputs": [],
      "name": "decimals",
      "outputs": [
        {
          "internalType": "uint8",
          "name": "",
          "type": "uint8"
        }
      ],
      "stateMutability": "view",
      "type": "function",
      "constant": true
    },
    {
      "inputs": [
        {
          "internalType": "address",
          "name": "spender",
          "type": "address"
        },
        {
          "internalType": "uint256",
          "name": "subtractedValue",
          "type": "uint256"
        }
      ],
      "name": "decreaseAllowance",
      "outputs": [
        {
          "internalType": "bool",
          "name": "",
          "type": "bool"
        }
      ],
      "stateMutability": "nonpayable",
      "type": "function"
    },
    {
      "inputs": [],
      "name": "denomination",
      "outputs": [
        {
          "internalType": "uint256",
          "name": "",
          "type": "uint256"
        }
      ],
      "stateMutability": "view",
      "type": "function",
      "constant": true
    },
    {
      "inputs": [
        {
          "internalType": "address",
          "name": "spender",
          "type": "address"
        },
        {
          "internalType": "uint256",
          "name": "addedValue",
          "type": "uint256"
        }
      ],
      "name": "increaseAllowance",
      "outputs": [
        {
          "internalType": "bool",
          "name": "",
          "type": "bool"
        }
      ],
      "stateMutability": "nonpayable",
      "type": "function"
    },
    {
      "inputs": [],
      "name": "name",
      "outputs": [
        {
          "internalType": "string",
          "name": "",
          "type": "string"
        }
      ],
      "stateMutability": "view",
      "type": "function",
      "constant": true
    },
    {
      "inputs": [
        {
          "internalType": "bytes32",
          "name": "",
          "type": "bytes32"
        }
      ],
      "name": "nullifierHashes",
      "outputs": [
        {
          "internalType": "bool",
          "name": "",
          "type": "bool"
        }
      ],
      "stateMutability": "view",
      "type": "function",
      "constant": true
    },
    {
      "inputs": [
        {
          "internalType": "uint256",
          "name": "",
          "type": "uint256"
        }
      ],
      "name": "roots",
      "outputs": [
        {
          "internalType": "bytes32",
          "name": "",
          "type": "bytes32"
        }
      ],
      "stateMutability": "view",
      "type": "function",
      "constant": true
    },
    {
      "inputs": [],
      "name": "symbol",
      "outputs": [
        {
          "internalType": "string",
          "name": "",
          "type": "string"
        }
      ],
      "stateMutability": "view",
      "type": "function",
      "constant": true
    },
    {
      "inputs": [],
      "name": "totalSupply",
      "outputs": [
        {
          "internalType": "uint256",
          "name": "",
          "type": "uint256"
        }
      ],
      "stateMutability": "view",
      "type": "function",
      "constant": true
    },
    {
      "inputs": [
        {
          "internalType": "address",
          "name": "recipient",
          "type": "address"
        },
        {
          "internalType": "uint256",
          "name": "amount",
          "type": "uint256"
        }
      ],
      "name": "transfer",
      "outputs": [
        {
          "internalType": "bool",
          "name": "",
          "type": "bool"
        }
      ],
      "stateMutability": "nonpayable",
      "type": "function"
    },
    {
      "inputs": [
        {
          "internalType": "address",
          "name": "sender",
          "type": "address"
        },
        {
          "internalType": "address",
          "name": "recipient",
          "type": "address"
        },
        {
          "internalType": "uint256",
          "name": "amount",
          "type": "uint256"
        }
      ],
      "name": "transferFrom",
      "outputs": [
        {
          "internalType": "bool",
          "name": "",
          "type": "bool"
        }
      ],
      "stateMutability": "nonpayable",
      "type": "function"
    },
    {
      "inputs": [],
      "name": "verifier",
      "outputs": [
        {
          "internalType": "contract IVerifier",
          "name": "",
          "type": "address"
        }
      ],
      "stateMutability": "view",
      "type": "function",
      "constant": true
    },
    {
      "inputs": [
        {
          "internalType": "bytes32",
          "name": "root",
          "type": "bytes32"
        }
      ],
      "name": "submitRoot",
      "outputs": [],
      "stateMutability": "nonpayable",
      "type": "function"
    },
    {
      "inputs": [
        {
          "internalType": "address",
          "name": "recipient",
          "type": "address"
        },
        {
          "internalType": "uint256",
          "name": "amount",
          "type": "uint256"
        }
      ],
      "name": "reclaim",
      "outputs": [],
      "stateMutability": "nonpayable",
      "type": "function"
    },
    {
      "inputs": [
        {
          "internalType": "bytes",
          "name": "_proof",
          "type": "bytes"
        },
        {
          "internalType": "bytes32",
          "name": "_root",
          "type": "bytes32"
        },
        {
          "internalType": "bytes32",
          "name": "_nullifierHash",
          "type": "bytes32"
        },
        {
          "internalType": "address payable",
          "name": "_recipient",
          "type": "address"
        },
        {
          "internalType": "address payable",
          "name": "_relayer",
          "type": "address"
        },
        {
          "internalType": "uint256",
          "name": "_fee",
          "type": "uint256"
        },
        {
          "internalType": "uint256",
          "name": "_refund",
          "type": "uint256"
        }
      ],
      "name": "withdraw",
      "outputs": [],
      "stateMutability": "payable",
      "type": "function",
      "payable": true
    },
    {
      "inputs": [
        {
          "internalType": "bytes32",
          "name": "_nullifierHash",
          "type": "bytes32"
        }
      ],
      "name": "isSpent",
      "outputs": [
        {
          "internalType": "bool",
          "name": "",
          "type": "bool"
        }
      ],
      "stateMutability": "view",
      "type": "function",
      "constant": true
    },
    {
      "inputs": [
        {
          "internalType": "bytes32",
          "name": "_root",
          "type": "bytes32"
        }
      ],
      "name": "isKnownRoot",
      "outputs": [
        {
          "internalType": "bool",
          "name": "",
          "type": "bool"
        }
      ],
      "stateMutability": "view",
      "type": "function",
      "constant": true
    },
    {
      "inputs": [],
      "name": "getLastRoot",
      "outputs": [
        {
          "internalType": "bytes32",
          "name": "",
          "type": "bytes32"
        }
      ],
      "stateMutability": "view",
      "type": "function",
      "constant": true
    }
  ],
  "bytecode": "0x60a06040526000600b60006101000a81548163ffffffff021916908363ffffffff1602179055503480156200003357600080fd5b50604051620026df380380620026df833981810160405260608110156200005957600080fd5b810190808051906020019092919080519060200190929190805190602001909291905050506040518060400160405280601b81526020017f5072697661637950726573657276696e675772617070656445544800000000008152506040518060400160405280600681526020017f505057455448000000000000000000000000000000000000000000000000000081525081600390805190602001906200010292919062000225565b5080600490805190602001906200011b92919062000225565b506012600560006101000a81548160ff021916908360ff16021790555050506001600681905550600081116200019d576040517f08c379a0000000000000000000000000000000000000000000000000000000008152600401808060200182810382526025815260200180620026ba6025913960400191505060405180910390fd5b82600760006101000a81548173ffffffffffffffffffffffffffffffffffffffff021916908373ffffffffffffffffffffffffffffffffffffffff1602179055508173ffffffffffffffffffffffffffffffffffffffff1660808173ffffffffffffffffffffffffffffffffffffffff1660601b8152505080600881905550505050620002db565b828054600181600116156101000203166002900490600052602060002090601f0160209004810192826200025d5760008555620002a9565b82601f106200027857805160ff1916838001178555620002a9565b82800160010185558215620002a9579182015b82811115620002a85782518255916020019190600101906200028b565b5b509050620002b89190620002bc565b5090565b5b80821115620002d7576000816000905550600101620002bd565b5090565b60805160601c6123bc620002fe60003980610ca3528061101452506123bc6000f3fe6080604052600436106101405760003560e01c80638bca6d16116100b6578063ba70f7571161006f578063ba70f757146107f3578063c2b40ae41461081e578063cd87a3b41461086d578063d33a28b21461089e578063dd62ed3e146108d9578063e5285dcc1461095e57610140565b80638bca6d16146105ca5780638bd317eb146105f557806390eeb02b1461065057806395d89b4114610681578063a457c2d714610711578063a9059cbb1461078257610140565b806323b872dd1161010857806323b872dd146103a35780632b7ac3f314610434578063313ce5671461047557806339509351146104a35780636d9833e31461051457806370a082311461056557610140565b806306fdde0314610145578063095ea7b3146101d557806317cc915c1461024657806318160ddd1461029757806321a0adb6146102c2575b600080fd5b34801561015157600080fd5b5061015a6109af565b6040518080602001828103825283818151815260200191508051906020019080838360005b8381101561019a57808201518184015260208101905061017f565b50505050905090810190601f1680156101c75780820380516001836020036101000a031916815260200191505b509250505060405180910390f35b3480156101e157600080fd5b5061022e600480360360408110156101f857600080fd5b81019080803573ffffffffffffffffffffffffffffffffffffffff16906020019092919080359060200190929190505050610a51565b60405180821515815260200191505060405180910390f35b34801561025257600080fd5b5061027f6004803603602081101561026957600080fd5b8101908080359060200190929190505050610a6f565b60405180821515815260200191505060405180910390f35b3480156102a357600080fd5b506102ac610a8f565b6040518082815260200191505060405180910390f35b6103a1600480360360e08110156102d857600080fd5b81019080803590602001906401000000008111156102f557600080fd5b82018360208201111561030757600080fd5b8035906020019184600183028401116401000000008311171561032957600080fd5b90919293919293908035906020019092919080359060200190929190803573ffffffffffffffffffffffffffffffffffffffff169060200190929190803573ffffffffffffffffffffffffffffffffffffffff1690602001909291908035906020019092919080359060200190929190505050610a99565b005b3480156103af57600080fd5b5061041c600480360360608110156103c657600080fd5b81019080803573ffffffffffffffffffffffffffffffffffffffff169060200190929190803573ffffffffffffffffffffffffffffffffffffffff16906020019092919080359060200190929190505050610f39565b60405180821515815260200191505060405180910390f35b34801561044057600080fd5b50610449611012565b604051808273ffffffffffffffffffffffffffffffffffffffff16815260200191505060405180910390f35b34801561048157600080fd5b5061048a611036565b604051808260ff16815260200191505060405180910390f35b3480156104af57600080fd5b506104fc600480360360408110156104c657600080fd5b81019080803573ffffffffffffffffffffffffffffffffffffffff1690602001909291908035906020019092919050505061104d565b60405180821515815260200191505060405180910390f35b34801561052057600080fd5b5061054d6004803603602081101561053757600080fd5b8101908080359060200190929190505050611100565b60405180821515815260200191505060405180910390f35b34801561057157600080fd5b506105b46004803603602081101561058857600080fd5b81019080803573ffffffffffffffffffffffffffffffffffffffff16906020019092919050505061119c565b6040518082815260200191505060405180910390f35b3480156105d657600080fd5b506105df6111e4565b6040518082815260200191505060405180910390f35b34801561060157600080fd5b5061064e6004803603604081101561061857600080fd5b81019080803573ffffffffffffffffffffffffffffffffffffffff169060200190929190803590602001909291905050506111ea565b005b34801561065c57600080fd5b506106656112d6565b604051808263ffffffff16815260200191505060405180910390f35b34801561068d57600080fd5b506106966112ec565b6040518080602001828103825283818151815260200191508051906020019080838360005b838110156106d65780820151818401526020810190506106bb565b50505050905090810190601f1680156107035780820380516001836020036101000a031916815260200191505b509250505060405180910390f35b34801561071d57600080fd5b5061076a6004803603604081101561073457600080fd5b81019080803573ffffffffffffffffffffffffffffffffffffffff1690602001909291908035906020019092919050505061138e565b60405180821515815260200191505060405180910390f35b34801561078e57600080fd5b506107db600480360360408110156107a557600080fd5b81019080803573ffffffffffffffffffffffffffffffffffffffff1690602001909291908035906020019092919050505061145b565b60405180821515815260200191505060405180910390f35b3480156107ff57600080fd5b50610808611479565b6040518082815260200191505060405180910390f35b34801561082a57600080fd5b506108576004803603602081101561084157600080fd5b81019080803590602001909291905050506114ac565b6040518082815260200191505060405180910390f35b34801561087957600080fd5b506108826114c4565b604051808263ffffffff16815260200191505060405180910390f35b3480156108aa57600080fd5b506108d7600480360360208110156108c157600080fd5b81019080803590602001909291905050506114c9565b005b3480156108e557600080fd5b50610948600480360360408110156108fc57600080fd5b81019080803573ffffffffffffffffffffffffffffffffffffffff169060200190929190803573ffffffffffffffffffffffffffffffffffffffff1690602001909291905050506115e2565b6040518082815260200191505060405180910390f35b34801561096a57600080fd5b506109976004803603602081101561098157600080fd5b8101908080359060200190929190505050611669565b60405180821515815260200191505060405180910390f35b606060038054600181600116156101000203166002900480601f016020809104026020016040519081016040528092919081815260200182805460018160011615610100020316600290048015610a475780601f10610a1c57610100808354040283529160200191610a47565b820191906000526020600020905b815481529060010190602001808311610a2a57829003601f168201915b5050505050905090565b6000610a65610a5e611693565b848461169b565b6001905092915050565b60096020528060005260406000206000915054906101000a900460ff1681565b6000600254905090565b60026006541415610b12576040517f08c379a000000000000000000000000000000000000000000000000000000000815260040180806020018281038252601f8152602001807f5265656e7472616e637947756172643a207265656e7472616e742063616c6c0081525060200191505060405180910390fd5b6002600681905550600854821115610b92576040517f08c379a000000000000000000000000000000000000000000000000000000000815260040180806020018281038252601a8152602001807f4665652065786365656473207472616e736665722076616c756500000000000081525060200191505060405180910390fd5b6009600086815260200190815260200160002060009054906101000a900460ff1615610c26576040517f08c379a000000000000000000000000000000000000000000000000000000000815260040180806020018281038252601f8152602001807f546865206e6f746520686173206265656e20616c7265616479207370656e740081525060200191505060405180910390fd5b610c2f86611100565b610ca1576040517f08c379a000000000000000000000000000000000000000000000000000000000815260040180806020018281038252601c8152602001807f43616e6e6f742066696e6420796f7572206d65726b6c6520726f6f740000000081525060200191505060405180910390fd5b7f000000000000000000000000000000000000000000000000000000000000000073ffffffffffffffffffffffffffffffffffffffff1663695ef6f989896040518060c001604052808b60001c81526020018a60001c81526020018973ffffffffffffffffffffffffffffffffffffffff1681526020018873ffffffffffffffffffffffffffffffffffffffff168152602001878152602001868152506040518463ffffffff1660e01b8152600401808060200183600660200280838360005b83811015610d7c578082015181840152602081019050610d61565b505050509050018281038252858582818152602001925080828437600081840152601f19601f820116905080830192505050945050505050602060405180830381600087803b158015610dce57600080fd5b505af1158015610de2573d6000803e3d6000fd5b505050506040513d6020811015610df857600080fd5b8101908080519060200190929190505050610e7b576040517f08c379a00000000000000000000000000000000000000000000000000000000081526004018080602001828103825260168152602001807f496e76616c69642077697468647261772070726f6f660000000000000000000081525060200191505060405180910390fd5b60016009600087815260200190815260200160002060006101000a81548160ff021916908315150217905550610eb384848484611892565b8273ffffffffffffffffffffffffffffffffffffffff167fe9e508bad6d4c3227e881ca19068f099da81b5164dd6d62b2eaf1e8bc6c34931858785604051808473ffffffffffffffffffffffffffffffffffffffff168152602001838152602001828152602001935050505060405180910390a260016006819055505050505050505050565b6000610f468484846119d3565b61100784610f52611693565b611002856040518060600160405280602881526020016122a760289139600160008b73ffffffffffffffffffffffffffffffffffffffff1673ffffffffffffffffffffffffffffffffffffffff1681526020019081526020016000206000610fb8611693565b73ffffffffffffffffffffffffffffffffffffffff1673ffffffffffffffffffffffffffffffffffffffff16815260200190815260200160002054611c949092919063ffffffff16565b61169b565b600190509392505050565b7f000000000000000000000000000000000000000000000000000000000000000081565b6000600560009054906101000a900460ff16905090565b60006110f661105a611693565b846110f1856001600061106b611693565b73ffffffffffffffffffffffffffffffffffffffff1673ffffffffffffffffffffffffffffffffffffffff16815260200190815260200160002060008973ffffffffffffffffffffffffffffffffffffffff1673ffffffffffffffffffffffffffffffffffffffff16815260200190815260200160002054611d4e90919063ffffffff16565b61169b565b6001905092915050565b60008060001b8214156111165760009050611197565b6000600b60009054906101000a900463ffffffff16905060008190505b600a60008263ffffffff1681526020019081526020016000205484141561115f57600192505050611197565b60008163ffffffff16141561117357601e90505b8080600190039150508163ffffffff168163ffffffff161415611133576000925050505b919050565b60008060008373ffffffffffffffffffffffffffffffffffffffff1673ffffffffffffffffffffffffffffffffffffffff168152602001908152602001600020549050919050565b60085481565b60026006541415611263576040517f08c379a000000000000000000000000000000000000000000000000000000000815260040180806020018281038252601f8152602001807f5265656e7472616e637947756172643a207265656e7472616e742063616c6c0081525060200191505060405180910390fd5b60026006819055506112753382611dd6565b7f6c4b794a4b78cc93f78e6a6accc7e3f1388e15da178a4437a895760dc24ff3c48282604051808373ffffffffffffffffffffffffffffffffffffffff1681526020018281526020019250505060405180910390a160016006819055505050565b600b60009054906101000a900463ffffffff1681565b606060048054600181600116156101000203166002900480601f0160208091040260200160405190810160405280929190818152602001828054600181600116156101000203166002900480156113845780601f1061135957610100808354040283529160200191611384565b820191906000526020600020905b81548152906001019060200180831161136757829003601f168201915b5050505050905090565b600061145161139b611693565b8461144c8560405180606001604052806025815260200161236260259139600160006113c5611693565b73ffffffffffffffffffffffffffffffffffffffff1673ffffffffffffffffffffffffffffffffffffffff16815260200190815260200160002060008a73ffffffffffffffffffffffffffffffffffffffff1673ffffffffffffffffffffffffffffffffffffffff16815260200190815260200160002054611c949092919063ffffffff16565b61169b565b6001905092915050565b600061146f611468611693565b84846119d3565b6001905092915050565b6000600a6000600b60009054906101000a900463ffffffff1663ffffffff16815260200190815260200160002054905090565b600a6020528060005260406000206000915090505481565b601e81565b3373ffffffffffffffffffffffffffffffffffffffff16600760009054906101000a900473ffffffffffffffffffffffffffffffffffffffff1673ffffffffffffffffffffffffffffffffffffffff161461156f576040517f08c379a00000000000000000000000000000000000000000000000000000000081526004018080602001828103825260298152602001806122cf6029913960400191505060405180910390fd5b6000601e63ffffffff166001600b60009054906101000a900463ffffffff160163ffffffff168161159c57fe5b06905080600b60006101000a81548163ffffffff021916908363ffffffff16021790555081600a60008363ffffffff168152602001908152602001600020819055505050565b6000600160008473ffffffffffffffffffffffffffffffffffffffff1673ffffffffffffffffffffffffffffffffffffffff16815260200190815260200160002060008373ffffffffffffffffffffffffffffffffffffffff1673ffffffffffffffffffffffffffffffffffffffff16815260200190815260200160002054905092915050565b60006009600083815260200190815260200160002060009054906101000a900460ff169050919050565b600033905090565b600073ffffffffffffffffffffffffffffffffffffffff168373ffffffffffffffffffffffffffffffffffffffff161415611721576040517f08c379a000000000000000000000000000000000000000000000000000000000815260040180806020018281038252602481526020018061233e6024913960400191505060405180910390fd5b600073ffffffffffffffffffffffffffffffffffffffff168273ffffffffffffffffffffffffffffffffffffffff1614156117a7576040517f08c379a000000000000000000000000000000000000000000000000000000000815260040180806020018281038252602281526020018061222f6022913960400191505060405180910390fd5b80600160008573ffffffffffffffffffffffffffffffffffffffff1673ffffffffffffffffffffffffffffffffffffffff16815260200190815260200160002060008473ffffffffffffffffffffffffffffffffffffffff1673ffffffffffffffffffffffffffffffffffffffff168152602001908152602001600020819055508173ffffffffffffffffffffffffffffffffffffffff168373ffffffffffffffffffffffffffffffffffffffff167f8c5be1e5ebec7d5bd14f71427d1e84f3dd0314c0f7b2291e5b200ac8c7c3b925836040518082815260200191505060405180910390a3505050565b8034146118ea576040517f08c379a00000000000000000000000000000000000000000000000000000000081526004018080602001828103825260308152602001806122516030913960400191505060405180910390fd5b6118f8848360085403611f9a565b600082111561190c5761190b8383611f9a565b5b60008111156119cd5760008473ffffffffffffffffffffffffffffffffffffffff168260405180600001905060006040518083038185875af1925050503d8060008114611975576040519150601f19603f3d011682016040523d82523d6000602084013e61197a565b606091505b50509050806119cb578373ffffffffffffffffffffffffffffffffffffffff166108fc839081150290604051600060405180830381858888f193505050501580156119c9573d6000803e3d6000fd5b505b505b50505050565b600073ffffffffffffffffffffffffffffffffffffffff168373ffffffffffffffffffffffffffffffffffffffff161415611a59576040517f08c379a00000000000000000000000000000000000000000000000000000000081526004018080602001828103825260258152602001806123196025913960400191505060405180910390fd5b600073ffffffffffffffffffffffffffffffffffffffff168273ffffffffffffffffffffffffffffffffffffffff161415611adf576040517f08c379a00000000000000000000000000000000000000000000000000000000081526004018080602001828103825260238152602001806121ea6023913960400191505060405180910390fd5b611aea838383612161565b611b5581604051806060016040528060268152602001612281602691396000808773ffffffffffffffffffffffffffffffffffffffff1673ffffffffffffffffffffffffffffffffffffffff16815260200190815260200160002054611c949092919063ffffffff16565b6000808573ffffffffffffffffffffffffffffffffffffffff1673ffffffffffffffffffffffffffffffffffffffff16815260200190815260200160002081905550611be8816000808573ffffffffffffffffffffffffffffffffffffffff1673ffffffffffffffffffffffffffffffffffffffff16815260200190815260200160002054611d4e90919063ffffffff16565b6000808473ffffffffffffffffffffffffffffffffffffffff1673ffffffffffffffffffffffffffffffffffffffff168152602001908152602001600020819055508173ffffffffffffffffffffffffffffffffffffffff168373ffffffffffffffffffffffffffffffffffffffff167fddf252ad1be2c89b69c2b068fc378daa952ba7f163c4a11628f55a4df523b3ef836040518082815260200191505060405180910390a3505050565b6000838311158290611d41576040517f08c379a00000000000000000000000000000000000000000000000000000000081526004018080602001828103825283818151815260200191508051906020019080838360005b83811015611d06578082015181840152602081019050611ceb565b50505050905090810190601f168015611d335780820380516001836020036101000a031916815260200191505b509250505060405180910390fd5b5082840390509392505050565b600080828401905083811015611dcc576040517f08c379a000000000000000000000000000000000000000000000000000000000815260040180806020018281038252601b8152602001807f536166654d6174683a206164646974696f6e206f766572666c6f77000000000081525060200191505060405180910390fd5b8091505092915050565b600073ffffffffffffffffffffffffffffffffffffffff168273ffffffffffffffffffffffffffffffffffffffff161415611e5c576040517f08c379a00000000000000000000000000000000000000000000000000000000081526004018080602001828103825260218152602001806122f86021913960400191505060405180910390fd5b611e6882600083612161565b611ed38160405180606001604052806022815260200161220d602291396000808673ffffffffffffffffffffffffffffffffffffffff1673ffffffffffffffffffffffffffffffffffffffff16815260200190815260200160002054611c949092919063ffffffff16565b6000808473ffffffffffffffffffffffffffffffffffffffff1673ffffffffffffffffffffffffffffffffffffffff16815260200190815260200160002081905550611f2a8160025461216690919063ffffffff16565b600281905550600073ffffffffffffffffffffffffffffffffffffffff168273ffffffffffffffffffffffffffffffffffffffff167fddf252ad1be2c89b69c2b068fc378daa952ba7f163c4a11628f55a4df523b3ef836040518082815260200191505060405180910390a35050565b600073ffffffffffffffffffffffffffffffffffffffff168273ffffffffffffffffffffffffffffffffffffffff16141561203d576040517f08c379a000000000000000000000000000000000000000000000000000000000815260040180806020018281038252601f8152602001807f45524332303a206d696e7420746f20746865207a65726f20616464726573730081525060200191505060405180910390fd5b61204960008383612161565b61205e81600254611d4e90919063ffffffff16565b6002819055506120b5816000808573ffffffffffffffffffffffffffffffffffffffff1673ffffffffffffffffffffffffffffffffffffffff16815260200190815260200160002054611d4e90919063ffffffff16565b6000808473ffffffffffffffffffffffffffffffffffffffff1673ffffffffffffffffffffffffffffffffffffffff168152602001908152602001600020819055508173ffffffffffffffffffffffffffffffffffffffff16600073ffffffffffffffffffffffffffffffffffffffff167fddf252ad1be2c89b69c2b068fc378daa952ba7f163c4a11628f55a4df523b3ef836040518082815260200191505060405180910390a35050565b505050565b6000828211156121de576040517f08c379a000000000000000000000000000000000000000000000000000000000815260040180806020018281038252601e8152602001807f536166654d6174683a207375627472616374696f6e206f766572666c6f77000081525060200191505060405180910390fd5b81830390509291505056fe45524332303a207472616e7366657220746f20746865207a65726f206164647265737345524332303a206275726e20616d6f756e7420657863656564732062616c616e636545524332303a20617070726f766520746f20746865207a65726f2061646472657373496e636f727265637420726566756e6420616d6f756e742072656365697665642062792074686520636f6e747261637445524332303a207472616e7366657220616d6f756e7420657863656564732062616c616e636545524332303a207472616e7366657220616d6f756e74206578636565647320616c6c6f77616e636554686973206d6574686f642063616e2062652063616c6c656420627920627269646765206f6e6c792145524332303a206275726e2066726f6d20746865207a65726f206164647265737345524332303a207472616e736665722066726f6d20746865207a65726f206164647265737345524332303a20617070726f76652066726f6d20746865207a65726f206164647265737345524332303a2064656372656173656420616c6c6f77616e63652062656c6f77207a65726fa26469706673582212200c02e3fc808717f0bce3e2c129c6acfbea87fb8e4bdc7aac32b0d15ed99c979164736f6c6343000706003364656e6f6d696e6174696f6e2073686f756c642062652067726561746572207468616e2030",
  "immutableReferences": {
    "1021": [
      {
        "length": 32,
        "start": 3235
      },
      {
        "length": 32,
        "start": 4116
      }
    ]
  },
  "source": "// SPDX-License-Identifier: MIT\r\n// Contract is a conjunction of several Tornado Cash contracts available on https://github.com/tornadocash/tornado-core/tree/master/contracts\r\n// functions reclaim and submitRoot are written by myself. \r\npragma solidity ^0.7.0;\r\n\r\nimport \"@openzeppelin/contracts/utils/ReentrancyGuard.sol\";\r\nimport {ERC20} from \"@openzeppelin/contracts/token/ERC20/ERC20.sol\";\r\n\r\ninterface IVerifier {\r\n  function verifyProof(bytes memory _proof, uint256[6] memory _input) external returns (bool);\r\n}\r\n\r\ncontract DestinationWrappedETH is ERC20, ReentrancyGuard {\r\n\r\n    IVerifier public immutable verifier;\r\n    address bridge;\r\n    uint256 public denomination;\r\n    mapping(bytes32 => bool) public nullifierHashes;\r\n\r\n    // roots could be bytes32[size], but using mappings makes it cheaper because\r\n    // it removes index range check on every interaction\r\n    mapping(uint256 => bytes32) public roots;\r\n\r\n    uint32 public constant ROOT_HISTORY_SIZE = 30;\r\n    uint32 public currentRootIndex = 0;\r\n\r\n    event Withdrawal(address to, bytes32 nullifierHash, address indexed relayer, uint256 fee);\r\n    event Reclaim(address recipient, uint256 amount);\r\n\r\n    /**\r\n        @dev The constructor\r\n        @param _verifier the address of SNARK verifier for this contract\r\n        @param _bridge the address of bridge wallet\r\n        @param _denomination transfer amount for each deposit\r\n    */\r\n    constructor(\r\n        address _bridge,\r\n        IVerifier _verifier,\r\n        uint256 _denomination\r\n    ) ERC20(\"PrivacyPreservingWrappedETH\", \"PPWETH\") {\r\n        require(_denomination > 0, \"denomination should be greater than 0\");\r\n        bridge = _bridge;\r\n        verifier = _verifier;\r\n        denomination = _denomination;\r\n    }\r\n\r\n    modifier onlyBridge() {\r\n        require(\r\n            bridge == msg.sender,\r\n            \"This method can be called by bridge only!\"\r\n        );\r\n        _;\r\n    }\r\n\r\n    function submitRoot(bytes32 root) external onlyBridge {\r\n        uint32 newRootIndex = (currentRootIndex + 1) % ROOT_HISTORY_SIZE;\r\n        currentRootIndex = newRootIndex;\r\n        roots[newRootIndex] = root;\r\n    }\r\n\r\n    function reclaim(address recipient, uint256 amount) external nonReentrant {\r\n        _burn(msg.sender, amount);\r\n        emit Reclaim(recipient, amount);\r\n    }\r\n\r\n    /**\r\n        @dev Withdraw a deposit made on origin chain to the . `proof` is a zkSNARK proof data, and input is an array of circuit public inputs\r\n        `input` array consists of:\r\n        - merkle root of all deposits in the contract\r\n        - hash of unique deposit nullifier to prevent double spends\r\n        - the recipient of funds\r\n        - optional fee that goes to the transaction sender (usually a relay)\r\n    */\r\n    function withdraw(\r\n        bytes calldata _proof,\r\n        bytes32 _root,\r\n        bytes32 _nullifierHash,\r\n        address payable _recipient,\r\n        address payable _relayer,\r\n        uint256 _fee,\r\n        uint256 _refund\r\n    ) external payable nonReentrant {\r\n        require(_fee <= denomination, \"Fee exceeds transfer value\");\r\n        require(!nullifierHashes[_nullifierHash], \"The note has been already spent\");\r\n        require(isKnownRoot(_root), \"Cannot find your merkle root\"); // Make sure to use a recent one\r\n        require(\r\n        verifier.verifyProof(\r\n            _proof,\r\n            [uint256(_root), uint256(_nullifierHash), uint256(_recipient), uint256(_relayer), _fee, _refund]\r\n        ),\r\n        \"Invalid withdraw proof\"\r\n        );\r\n\r\n        nullifierHashes[_nullifierHash] = true;\r\n        _processWithdraw(_recipient, _relayer, _fee, _refund);\r\n        emit Withdrawal(_recipient, _nullifierHash, _relayer, _fee);\r\n    }\r\n\r\n\r\n    function _processWithdraw(\r\n        address payable _recipient,\r\n        address payable _relayer,\r\n        uint256 _fee,\r\n        uint256 _refund\r\n    ) internal {\r\n        require(msg.value == _refund, \"Incorrect refund amount received by the contract\");\r\n\r\n        _mint(_recipient, denomination - _fee);\r\n        if (_fee > 0) {\r\n            _mint(_relayer, _fee);\r\n        }\r\n\r\n        if (_refund > 0) {\r\n            (bool success, ) = _recipient.call{ value: _refund }(\"\");\r\n            if (!success) {\r\n                // let's return _refund back to the relayer\r\n                _relayer.transfer(_refund);\r\n            }\r\n        }\r\n    }\r\n\r\n\r\n    function isSpent(bytes32 _nullifierHash) public view returns (bool) {\r\n        return nullifierHashes[_nullifierHash];\r\n    }\r\n\r\n    /**\r\n        @dev Whether the root is present in the root history\r\n    */\r\n    function isKnownRoot(bytes32 _root) public view returns (bool) {\r\n        if (_root == 0) {\r\n            return false;\r\n        }\r\n        uint32 _currentRootIndex = currentRootIndex;\r\n        uint32 i = _currentRootIndex;\r\n        do {\r\n            if (_root == roots[i]) {\r\n                return true;\r\n            }\r\n            if (i == 0) {\r\n                i = ROOT_HISTORY_SIZE;\r\n            }\r\n            i--;\r\n        } while (i != _currentRootIndex);\r\n        return false;\r\n    }\r\n\r\n    /**\r\n        @dev Returns the last root\r\n    */\r\n    function getLastRoot() public view returns (bytes32) {\r\n        return roots[currentRootIndex];\r\n    }\r\n\r\n}",
  "sourcePath": "D:\\FIIT\\4 year\\Bakalarka\\implementation\\smart_contracts\\contracts\\DestinationWrappedETH.sol",
  "compiler": {
    "name": "solc",
    "version": "0.7.6+commit.7338295f.Emscripten.clang"
  },
  "schemaVersion": "3.4.12",
  "updatedAt": "2023-04-09T18:50:46.003Z",
  "networkType": "ethereum",
  "devdoc": {
    "kind": "dev",
    "methods": {
      "allowance(address,address)": {
        "details": "See {IERC20-allowance}."
      },
      "approve(address,uint256)": {
        "details": "See {IERC20-approve}. Requirements: - `spender` cannot be the zero address."
      },
      "balanceOf(address)": {
        "details": "See {IERC20-balanceOf}."
      },
      "constructor": {
        "details": "The constructor",
        "params": {
          "_bridge": "the address of bridge wallet",
          "_denomination": "transfer amount for each deposit",
          "_verifier": "the address of SNARK verifier for this contract"
        }
      },
      "decimals()": {
        "details": "Returns the number of decimals used to get its user representation. For example, if `decimals` equals `2`, a balance of `505` tokens should be displayed to a user as `5,05` (`505 / 10 ** 2`). Tokens usually opt for a value of 18, imitating the relationship between Ether and Wei. This is the value {ERC20} uses, unless {_setupDecimals} is called. NOTE: This information is only used for _display_ purposes: it in no way affects any of the arithmetic of the contract, including {IERC20-balanceOf} and {IERC20-transfer}."
      },
      "decreaseAllowance(address,uint256)": {
        "details": "Atomically decreases the allowance granted to `spender` by the caller. This is an alternative to {approve} that can be used as a mitigation for problems described in {IERC20-approve}. Emits an {Approval} event indicating the updated allowance. Requirements: - `spender` cannot be the zero address. - `spender` must have allowance for the caller of at least `subtractedValue`."
      },
      "getLastRoot()": {
        "details": "Returns the last root"
      },
      "increaseAllowance(address,uint256)": {
        "details": "Atomically increases the allowance granted to `spender` by the caller. This is an alternative to {approve} that can be used as a mitigation for problems described in {IERC20-approve}. Emits an {Approval} event indicating the updated allowance. Requirements: - `spender` cannot be the zero address."
      },
      "isKnownRoot(bytes32)": {
        "details": "Whether the root is present in the root history"
      },
      "name()": {
        "details": "Returns the name of the token."
      },
      "symbol()": {
        "details": "Returns the symbol of the token, usually a shorter version of the name."
      },
      "totalSupply()": {
        "details": "See {IERC20-totalSupply}."
      },
      "transfer(address,uint256)": {
        "details": "See {IERC20-transfer}. Requirements: - `recipient` cannot be the zero address. - the caller must have a balance of at least `amount`."
      },
      "transferFrom(address,address,uint256)": {
        "details": "See {IERC20-transferFrom}. Emits an {Approval} event indicating the updated allowance. This is not required by the EIP. See the note at the beginning of {ERC20}. Requirements: - `sender` and `recipient` cannot be the zero address. - `sender` must have a balance of at least `amount`. - the caller must have allowance for ``sender``'s tokens of at least `amount`."
      },
      "withdraw(bytes,bytes32,bytes32,address,address,uint256,uint256)": {
        "details": "Withdraw a deposit made on origin chain to the . `proof` is a zkSNARK proof data, and input is an array of circuit public inputs `input` array consists of: - merkle root of all deposits in the contract - hash of unique deposit nullifier to prevent double spends - the recipient of funds - optional fee that goes to the transaction sender (usually a relay)"
      }
    },
    "version": 1
  },
  "userdoc": {
    "kind": "user",
    "methods": {},
    "version": 1
  }
}