{
  "contractName": "OriginWrappedETH",
  "abi": [
    {
      "inputs": [
        {
          "internalType": "address",
          "name": "_bridge",
          "type": "address"
        },
        {
          "internalType": "contract IHasher",
          "name": "_hasher",
          "type": "address"
        },
        {
          "internalType": "uint256",
          "name": "_denomination",
          "type": "uint256"
        },
        {
          "internalType": "uint32",
          "name": "_merkleTreeHeight",
          "type": "uint32"
        }
      ],
      "stateMutability": "nonpayable",
      "type": "constructor"
    },
    {
      "anonymous": false,
      "inputs": [
        {
          "indexed": true,
          "internalType": "bytes32",
          "name": "commitment",
          "type": "bytes32"
        },
        {
          "indexed": false,
          "internalType": "uint32",
          "name": "leafIndex",
          "type": "uint32"
        },
        {
          "indexed": false,
          "internalType": "bytes32",
          "name": "root",
          "type": "bytes32"
        },
        {
          "indexed": false,
          "internalType": "uint256",
          "name": "timestamp",
          "type": "uint256"
        }
      ],
      "name": "Deposit",
      "type": "event"
    },
    {
      "inputs": [],
      "name": "FIELD_SIZE",
      "outputs": [
        {
          "internalType": "uint256",
          "name": "",
          "type": "uint256"
        }
      ],
      "stateMutability": "view",
      "type": "function"
    },
    {
      "inputs": [],
      "name": "ZERO_VALUE",
      "outputs": [
        {
          "internalType": "uint256",
          "name": "",
          "type": "uint256"
        }
      ],
      "stateMutability": "view",
      "type": "function"
    },
    {
      "inputs": [
        {
          "internalType": "bytes32",
          "name": "",
          "type": "bytes32"
        }
      ],
      "name": "commitments",
      "outputs": [
        {
          "internalType": "bool",
          "name": "",
          "type": "bool"
        }
      ],
      "stateMutability": "view",
      "type": "function"
    },
    {
      "inputs": [],
      "name": "denomination",
      "outputs": [
        {
          "internalType": "uint256",
          "name": "",
          "type": "uint256"
        }
      ],
      "stateMutability": "view",
      "type": "function"
    },
    {
      "inputs": [
        {
          "internalType": "uint256",
          "name": "",
          "type": "uint256"
        }
      ],
      "name": "filledSubtrees",
      "outputs": [
        {
          "internalType": "bytes32",
          "name": "",
          "type": "bytes32"
        }
      ],
      "stateMutability": "view",
      "type": "function"
    },
    {
      "inputs": [
        {
          "internalType": "contract IHasher",
          "name": "_hasher",
          "type": "address"
        },
        {
          "internalType": "bytes32",
          "name": "_left",
          "type": "bytes32"
        },
        {
          "internalType": "bytes32",
          "name": "_right",
          "type": "bytes32"
        }
      ],
      "name": "hashLeftRight",
      "outputs": [
        {
          "internalType": "bytes32",
          "name": "",
          "type": "bytes32"
        }
      ],
      "stateMutability": "pure",
      "type": "function"
    },
    {
      "inputs": [],
      "name": "hasher",
      "outputs": [
        {
          "internalType": "contract IHasher",
          "name": "",
          "type": "address"
        }
      ],
      "stateMutability": "view",
      "type": "function"
    },
    {
      "inputs": [],
      "name": "levels",
      "outputs": [
        {
          "internalType": "uint32",
          "name": "",
          "type": "uint32"
        }
      ],
      "stateMutability": "view",
      "type": "function"
    },
    {
      "inputs": [],
      "name": "nextIndex",
      "outputs": [
        {
          "internalType": "uint32",
          "name": "",
          "type": "uint32"
        }
      ],
      "stateMutability": "view",
      "type": "function"
    },
    {
      "inputs": [
        {
          "internalType": "uint256",
          "name": "i",
          "type": "uint256"
        }
      ],
      "name": "zeros",
      "outputs": [
        {
          "internalType": "bytes32",
          "name": "",
          "type": "bytes32"
        }
      ],
      "stateMutability": "pure",
      "type": "function"
    },
    {
      "inputs": [
        {
          "internalType": "bytes32",
          "name": "_commitment",
          "type": "bytes32"
        }
      ],
      "name": "deposit",
      "outputs": [],
      "stateMutability": "payable",
      "type": "function"
    },
    {
      "inputs": [
        {
          "internalType": "address",
          "name": "recepient",
          "type": "address"
        },
        {
          "internalType": "uint256",
          "name": "amount",
          "type": "uint256"
        }
      ],
      "name": "releaseFunds",
      "outputs": [
        {
          "internalType": "bool",
          "name": "",
          "type": "bool"
        }
      ],
      "stateMutability": "nonpayable",
      "type": "function"
    }
  ],
  "bytecode": "0x60a06040526000600260006101000a81548163ffffffff021916908363ffffffff16021790555034801561003257600080fd5b506040516117763803806117768339818101604052608081101561005557600080fd5b8101908080519060200190929190805190602001909291908051906020019092919080519060200190929190505050808360008263ffffffff16116100e5576040517f08c379a00000000000000000000000000000000000000000000000000000000081526004018080602001828103825260238152602001806117536023913960400191505060405180910390fd5b60208263ffffffff1610610161576040517f08c379a000000000000000000000000000000000000000000000000000000000815260040180806020018281038252601e8152602001807f5f6c6576656c732073686f756c64206265206c657373207468616e203332000081525060200191505060405180910390fd5b816000806101000a81548163ffffffff021916908363ffffffff1602179055508073ffffffffffffffffffffffffffffffffffffffff1660808173ffffffffffffffffffffffffffffffffffffffff1660601b81525050505060016003819055506000821161021b576040517f08c379a000000000000000000000000000000000000000000000000000000000815260040180806020018281038252602581526020018061172e6025913960400191505060405180910390fd5b83600560006101000a81548173ffffffffffffffffffffffffffffffffffffffff021916908373ffffffffffffffffffffffffffffffffffffffff160217905550816004819055505050505060805160601c6114a561028960003980611182528061131f52506114a56000f3fe6080604052600436106100a75760003560e01c8063d6e982e511610064578063d6e982e51461022b578063e82955881461029c578063ec732959146102eb578063ed33639f14610316578063f178e47c14610357578063fc7e9c6f146103a6576100a7565b8063414a37ba146100ac5780634ecf518b146100d7578063839df945146101085780638bca6d16146101595780638ea3099e14610184578063b214faa5146101fd575b600080fd5b3480156100b857600080fd5b506100c16103d7565b6040518082815260200191505060405180910390f35b3480156100e357600080fd5b506100ec6103fb565b604051808263ffffffff16815260200191505060405180910390f35b34801561011457600080fd5b506101416004803603602081101561012b57600080fd5b810190808035906020019092919050505061040f565b60405180821515815260200191505060405180910390f35b34801561016557600080fd5b5061016e61042f565b6040518082815260200191505060405180910390f35b34801561019057600080fd5b506101e7600480360360608110156101a757600080fd5b81019080803573ffffffffffffffffffffffffffffffffffffffff1690602001909291908035906020019092919080359060200190929190505050610435565b6040518082815260200191505060405180910390f35b6102296004803603602081101561021357600080fd5b81019080803590602001909291905050506106dd565b005b34801561023757600080fd5b506102846004803603604081101561024e57600080fd5b81019080803573ffffffffffffffffffffffffffffffffffffffff169060200190929190803590602001909291905050506108c6565b60405180821515815260200191505060405180910390f35b3480156102a857600080fd5b506102d5600480360360208110156102bf57600080fd5b8101908080359060200190929190505050610a6a565b6040518082815260200191505060405180910390f35b3480156102f757600080fd5b5061030061115c565b6040518082815260200191505060405180910390f35b34801561032257600080fd5b5061032b611180565b604051808273ffffffffffffffffffffffffffffffffffffffff16815260200191505060405180910390f35b34801561036357600080fd5b506103906004803603602081101561037a57600080fd5b81019080803590602001909291905050506111a4565b6040518082815260200191505060405180910390f35b3480156103b257600080fd5b506103bb6111bc565b604051808263ffffffff16815260200191505060405180910390f35b7f30644e72e131a029b85045b68181585d2833e84879b9709143e1f593f000000181565b60008054906101000a900463ffffffff1681565b60066020528060005260406000206000915054906101000a900460ff1681565b60045481565b60007f30644e72e131a029b85045b68181585d2833e84879b9709143e1f593f00000018360001c106104cf576040517f08c379a00000000000000000000000000000000000000000000000000000000081526004018080602001828103825260208152602001807f5f6c6566742073686f756c6420626520696e7369646520746865206669656c6481525060200191505060405180910390fd5b7f30644e72e131a029b85045b68181585d2833e84879b9709143e1f593f00000018260001c1061054a576040517f08c379a00000000000000000000000000000000000000000000000000000000081526004018080602001828103825260218152602001806113d56021913960400191505060405180910390fd5b60008360001c905060008573ffffffffffffffffffffffffffffffffffffffff1663f47d33b583836040518363ffffffff1660e01b81526004018083815260200182815260200192505050604080518083038186803b1580156105ac57600080fd5b505afa1580156105c0573d6000803e3d6000fd5b505050506040513d60408110156105d657600080fd5b81019080805190602001909291908051906020019092919050505080925081935050507f30644e72e131a029b85045b68181585d2833e84879b9709143e1f593f00000018061062157fe5b8460001c830891508573ffffffffffffffffffffffffffffffffffffffff1663f47d33b583836040518363ffffffff1660e01b81526004018083815260200182815260200192505050604080518083038186803b15801561068157600080fd5b505afa158015610695573d6000803e3d6000fd5b505050506040513d60408110156106ab57600080fd5b81019080805190602001909291908051906020019092919050505080925081935050508160001b925050509392505050565b60026003541415610756576040517f08c379a000000000000000000000000000000000000000000000000000000000815260040180806020018281038252601f8152602001807f5265656e7472616e637947756172643a207265656e7472616e742063616c6c0081525060200191505060405180910390fd5b60026003819055506006600082815260200190815260200160002060009054906101000a900460ff16156107d5576040517f08c379a000000000000000000000000000000000000000000000000000000000815260040180806020018281038252602181526020018061141f6021913960400191505060405180910390fd5b600454341461082f576040517f08c379a000000000000000000000000000000000000000000000000000000000815260040180806020018281038252603881526020018061139d6038913960400191505060405180910390fd5b60008061083b836111d2565b9150915060016006600085815260200190815260200160002060006101000a81548160ff021916908315150217905550827fa569ed8dc9f4a8017b9285f168b90b9274abf07e27f19aaf4f72311e2b18c8df838342604051808463ffffffff168152602001838152602001828152602001935050505060405180910390a25050600160038190555050565b60003373ffffffffffffffffffffffffffffffffffffffff16600560009054906101000a900473ffffffffffffffffffffffffffffffffffffffff1673ffffffffffffffffffffffffffffffffffffffff161461096e576040517f08c379a00000000000000000000000000000000000000000000000000000000081526004018080602001828103825260298152602001806113f66029913960400191505060405180910390fd5b600260035414156109e7576040517f08c379a000000000000000000000000000000000000000000000000000000000815260040180806020018281038252601f8152602001807f5265656e7472616e637947756172643a207265656e7472616e742063616c6c0081525060200191505060405180910390fd5b600260038190555060008373ffffffffffffffffffffffffffffffffffffffff168360405180600001905060006040518083038185875af1925050503d8060008114610a4f576040519150601f19603f3d011682016040523d82523d6000602084013e610a54565b606091505b5050905080915050600160038190555092915050565b600080821415610a9f577f2fe54c60d3acabf3343a35b6eba15db4821b340f76e741e2249685ed4899af6c60001b9050611157565b6001821415610ad3577f256a6135777eee2fd26f54b8b7037a25439d5235caee224154186d2b8a52e31d60001b9050611157565b6002821415610b07577f1151949895e82ab19924de92c40a3d6f7bcb60d92b00504b8199613683f0c20060001b9050611157565b6003821415610b3b577f20121ee811489ff8d61f09fb89e313f14959a0f28bb428a20dba6b0b068b3bdb60001b9050611157565b6004821415610b6f577f0a89ca6ffa14cc462cfedb842c30ed221a50a3d6bf022a6a57dc82ab24c157c960001b9050611157565b6005821415610ba3577f24ca05c2b5cd42e890d6be94c68d0689f4f21c9cec9c0f13fe41d566dfb5495960001b9050611157565b6006821415610bd7577f1ccb97c932565a92c60156bdba2d08f3bf1377464e025cee765679e604a7315c60001b9050611157565b6007821415610c0b577f19156fbd7d1a8bf5cba8909367de1b624534ebab4f0f79e003bccdd1b182bdb460001b9050611157565b6008821415610c3f577f261af8c1f0912e465744641409f622d466c3920ac6e5ff37e36604cb11dfff8060001b9050611157565b6009821415610c72577e58459724ff6ca5a1652fcbc3e82b93895cf08e975b19beab3f54c217d1c00760001b9050611157565b600a821415610ca6577f1f04ef20dee48d39984d8eabe768a70eafa6310ad20849d4573c3c40c2ad1e3060001b9050611157565b600b821415610cda577f1bea3dec5dab51567ce7e200a30f7ba6d4276aeaa53e2686f962a46c66d511e560001b9050611157565b600c821415610d0e577f0ee0f941e2da4b9e31c3ca97a40d8fa9ce68d97c084177071b3cb46cd3372f0f60001b9050611157565b600d821415610d42577f1ca9503e8935884501bbaf20be14eb4c46b89772c97b96e3b2ebf3a36a948bbd60001b9050611157565b600e821415610d76577f133a80e30697cd55d8f7d4b0965b7be24057ba5dc3da898ee2187232446cb10860001b9050611157565b600f821415610daa577f13e6d8fc88839ed76e182c2a779af5b2c0da9dd18c90427a644f7e148a6253b660001b9050611157565b6010821415610dde577f1eb16b057a477f4bc8f572ea6bee39561098f78f15bfb3699dcbb7bd8db6185460001b9050611157565b6011821415610e12577f0da2cb16a1ceaabf1c16b838f7a9e3f2a3a3088d9e0a6debaa748114620696ea60001b9050611157565b6012821415610e46577f24a3b3d822420b14b5d8cb6c28a574f01e98ea9e940551d2ebd75cee12649f9d60001b9050611157565b6013821415610e7a577f198622acbd783d1b0d9064105b1fc8e4d8889de95c4c519b3f635809fe6afc0560001b9050611157565b6014821415610eae577f29d7ed391256ccc3ea596c86e933b89ff339d25ea8ddced975ae2fe30b5296d460001b9050611157565b6015821415610ee2577f19be59f2f0413ce78c0c3703a3a5451b1d7f39629fa33abd11548a76065b296760001b9050611157565b6016821415610f16577f1ff3f61797e538b70e619310d33f2a063e7eb59104e112e95738da1254dc345360001b9050611157565b6017821415610f4a577f10c16ae9959cf8358980d9dd9616e48228737310a10e2b6b731c1a548f036c4860001b9050611157565b6018821415610f7e577f0ba433a63174a90ac20992e75e3095496812b652685b5e1a2eae0b1bf4e8fcd160001b9050611157565b6019821415610fb2577f019ddb9df2bc98d987d0dfeca9d2b643deafab8f7036562e627c3667266a044c60001b9050611157565b601a821415610fe6577f2d3c88b23175c5a5565db928414c66d1912b11acf974b2e644caaac04739ce9960001b9050611157565b601b82141561101a577f2eab55f6ae4e66e32c5189eed5c470840863445760f5ed7e7b69b2a62600f35460001b9050611157565b601c82141561104d577e2df37a2642621802383cf952bf4dd1f32e05433beeb1fd41031fb7eace979d60001b9050611157565b601d821415611081577f104aeb41435db66c3e62feccc1d6f5d98d0a0ed75d1374db457cf462e3a1f42760001b9050611157565b601e8214156110b5577f1f3c6fd858e9a7d4b0d1f38e256a09d81d5a5e3c963987e2d4b814cfab7c6ebb60001b9050611157565b601f8214156110e9577f2c7a07d20dff79d01fecedc1134284a8d08436606c93693b67e333f671bf69cc60001b9050611157565b6040517f08c379a00000000000000000000000000000000000000000000000000000000081526004018080602001828103825260138152602001807f496e646578206f7574206f6620626f756e64730000000000000000000000000081525060200191505060405180910390fd5b919050565b7f2fe54c60d3acabf3343a35b6eba15db4821b340f76e741e2249685ed4899af6c81565b7f000000000000000000000000000000000000000000000000000000000000000081565b60016020528060005260406000206000915090505481565b600260009054906101000a900463ffffffff1681565b6000806000600260009054906101000a900463ffffffff16905060008054906101000a900463ffffffff1663ffffffff16600263ffffffff160a63ffffffff168163ffffffff161415611270576040517f08c379a00000000000000000000000000000000000000000000000000000000081526004018080602001828103825260308152602001806114406030913960400191505060405180910390fd5b6000819050600085905060008060005b60008054906101000a900463ffffffff1663ffffffff168163ffffffff16101561136757600060028663ffffffff16816112b657fe5b0663ffffffff1614156112fa578392506112d58163ffffffff16610a6a565b915083600160008363ffffffff1681526020019081526020016000208190555061131a565b600160008263ffffffff1681526020019081526020016000205492508391505b6113457f00000000000000000000000000000000000000000000000000000000000000008484610435565b935060028563ffffffff168161135757fe5b0494508080600101915050611280565b5060018501600260006101000a81548163ffffffff021916908363ffffffff160217905550848396509650505050505091509156fe506c656173652073656e6420606d697844656e6f6d696e6174696f6e602045544820616c6f6e672077697468207472616e73616374696f6e5f72696768742073686f756c6420626520696e7369646520746865206669656c6454686973206d6574686f642063616e2062652063616c6c656420627920627269646765206f6e6c792154686520636f6d6d69746d656e7420686173206265656e207375626d69747465644d65726b6c6520747265652069732066756c6c2e204e6f206d6f7265206c65617665732063616e206265206164646564a26469706673582212204c813c9109ac0f246475d3b985dcf9bd73a8ef6d4f0df6e1071d7b2bb59269d264736f6c6343000706003364656e6f6d696e6174696f6e2073686f756c642062652067726561746572207468616e20305f6c6576656c732073686f756c642062652067726561746572207468616e207a65726f",
  "immutableReferences": {
    "1398": [
      {
        "length": 32,
        "start": 4482
      },
      {
        "length": 32,
        "start": 4895
      }
    ]
  },
  "source": "// SPDX-License-Identifier: MIT\r\n// Contract is based on https://github.com/tornadocash/tornado-core/blob/master/contracts/Tornado.sol\r\npragma solidity ^0.7.0;\r\n\r\nimport \"@openzeppelin/contracts/utils/ReentrancyGuard.sol\";\r\nimport \"./MerkleTree.sol\";\r\n\r\ncontract OriginWrappedETH is MerkleTree, ReentrancyGuard {\r\n\r\n    uint256 public denomination;\r\n    address bridge;\r\n\r\n    // we store all commitments just to prevent accidental deposits with the same commitment\r\n    mapping(bytes32 => bool) public commitments;\r\n\r\n    event Deposit(bytes32 indexed commitment, uint32 leafIndex, bytes32 root, uint256 timestamp);\r\n\r\n    /**\r\n        @dev The constructor\r\n        @param _hasher the address of MiMC hash contract\r\n        @param _denomination transfer amount for each deposit\r\n        @param _merkleTreeHeight the height of deposits' Merkle Tree\r\n    */\r\n    constructor(\r\n        address _bridge,\r\n        IHasher _hasher,\r\n        uint256 _denomination,\r\n        uint32 _merkleTreeHeight\r\n    ) MerkleTree(_merkleTreeHeight, _hasher) {\r\n        require(_denomination > 0, \"denomination should be greater than 0\");\r\n        bridge = _bridge;\r\n        denomination = _denomination;\r\n    }\r\n\r\n    modifier onlyBridge() {\r\n        require(\r\n            bridge == msg.sender,\r\n            \"This method can be called by bridge only!\"\r\n        );\r\n        _;\r\n    }\r\n\r\n    function deposit(bytes32 _commitment) external payable nonReentrant {\r\n        require(!commitments[_commitment], \"The commitment has been submitted\");\r\n        require(msg.value == denomination, \"Please send `mixDenomination` ETH along with transaction\");\r\n        \r\n        (uint32 insertedIndex, bytes32 newRoot) = _insert(_commitment);\r\n        commitments[_commitment] = true;\r\n\r\n        emit Deposit(_commitment, insertedIndex, newRoot, block.timestamp);\r\n    }\r\n\r\n\r\n    function releaseFunds(address recepient, uint256 amount) external onlyBridge nonReentrant returns (bool) {\r\n        (bool success, ) = recepient.call{ value: amount }(\"\");\r\n        return success;\r\n    }\r\n\r\n}",
  "sourcePath": "D:\\FIIT\\4 year\\Bakalarka\\implementation\\smart_contracts\\contracts\\OriginWrappedETH.sol",
  "compiler": {
    "name": "solc",
    "version": "0.7.6+commit.7338295f.Emscripten.clang"
  },
  "schemaVersion": "3.4.12",
  "updatedAt": "2023-04-09T18:50:39.529Z",
  "devdoc": {
    "kind": "dev",
    "methods": {
      "constructor": {
        "details": "The constructor",
        "params": {
          "_denomination": "transfer amount for each deposit",
          "_hasher": "the address of MiMC hash contract",
          "_merkleTreeHeight": "the height of deposits' Merkle Tree"
        }
      },
      "hashLeftRight(address,bytes32,bytes32)": {
        "details": "Hash 2 tree leaves, returns MiMC(_left, _right)"
      },
      "zeros(uint256)": {
        "details": "provides Zero (Empty) elements for a MiMC MerkleTree. Up to 32 levels"
      }
    },
    "version": 1
  },
  "userdoc": {
    "kind": "user",
    "methods": {},
    "version": 1
  }
}